{
  "_format": "hh-sol-artifact-1",
  "contractName": "ZKNFT",
  "sourceName": "contracts/ZKNFT.sol",
  "abi": [
    {
      "inputs": [
        {
          "internalType": "contract IPasswordHashVerifier",
          "name": "_verifier",
          "type": "address"
        }
      ],
      "stateMutability": "nonpayable",
      "type": "constructor"
    },
    {
      "inputs": [
        {
          "internalType": "address",
          "name": "sender",
          "type": "address"
        },
        {
          "internalType": "uint256",
          "name": "tokenId",
          "type": "uint256"
        },
        {
          "internalType": "address",
          "name": "owner",
          "type": "address"
        }
      ],
      "name": "ERC721IncorrectOwner",
      "type": "error"
    },
    {
      "inputs": [
        {
          "internalType": "address",
          "name": "operator",
          "type": "address"
        },
        {
          "internalType": "uint256",
          "name": "tokenId",
          "type": "uint256"
        }
      ],
      "name": "ERC721InsufficientApproval",
      "type": "error"
    },
    {
      "inputs": [
        {
          "internalType": "address",
          "name": "approver",
          "type": "address"
        }
      ],
      "name": "ERC721InvalidApprover",
      "type": "error"
    },
    {
      "inputs": [
        {
          "internalType": "address",
          "name": "operator",
          "type": "address"
        }
      ],
      "name": "ERC721InvalidOperator",
      "type": "error"
    },
    {
      "inputs": [
        {
          "internalType": "address",
          "name": "owner",
          "type": "address"
        }
      ],
      "name": "ERC721InvalidOwner",
      "type": "error"
    },
    {
      "inputs": [
        {
          "internalType": "address",
          "name": "receiver",
          "type": "address"
        }
      ],
      "name": "ERC721InvalidReceiver",
      "type": "error"
    },
    {
      "inputs": [
        {
          "internalType": "address",
          "name": "sender",
          "type": "address"
        }
      ],
      "name": "ERC721InvalidSender",
      "type": "error"
    },
    {
      "inputs": [
        {
          "internalType": "uint256",
          "name": "tokenId",
          "type": "uint256"
        }
      ],
      "name": "ERC721NonexistentToken",
      "type": "error"
    },
    {
      "anonymous": false,
      "inputs": [
        {
          "indexed": true,
          "internalType": "address",
          "name": "owner",
          "type": "address"
        },
        {
          "indexed": true,
          "internalType": "address",
          "name": "approved",
          "type": "address"
        },
        {
          "indexed": true,
          "internalType": "uint256",
          "name": "tokenId",
          "type": "uint256"
        }
      ],
      "name": "Approval",
      "type": "event"
    },
    {
      "anonymous": false,
      "inputs": [
        {
          "indexed": true,
          "internalType": "address",
          "name": "owner",
          "type": "address"
        },
        {
          "indexed": true,
          "internalType": "address",
          "name": "operator",
          "type": "address"
        },
        {
          "indexed": false,
          "internalType": "bool",
          "name": "approved",
          "type": "bool"
        }
      ],
      "name": "ApprovalForAll",
      "type": "event"
    },
    {
      "anonymous": false,
      "inputs": [
        {
          "indexed": true,
          "internalType": "address",
          "name": "from",
          "type": "address"
        },
        {
          "indexed": true,
          "internalType": "address",
          "name": "to",
          "type": "address"
        },
        {
          "indexed": true,
          "internalType": "uint256",
          "name": "tokenId",
          "type": "uint256"
        }
      ],
      "name": "Transfer",
      "type": "event"
    },
    {
      "inputs": [
        {
          "internalType": "address",
          "name": "to",
          "type": "address"
        },
        {
          "internalType": "uint256",
          "name": "tokenId",
          "type": "uint256"
        }
      ],
      "name": "approve",
      "outputs": [],
      "stateMutability": "nonpayable",
      "type": "function"
    },
    {
      "inputs": [
        {
          "internalType": "address",
          "name": "owner",
          "type": "address"
        }
      ],
      "name": "balanceOf",
      "outputs": [
        {
          "internalType": "uint256",
          "name": "",
          "type": "uint256"
        }
      ],
      "stateMutability": "view",
      "type": "function"
    },
    {
      "inputs": [],
      "name": "description",
      "outputs": [
        {
          "internalType": "string",
          "name": "",
          "type": "string"
        }
      ],
      "stateMutability": "view",
      "type": "function"
    },
    {
      "inputs": [
        {
          "internalType": "uint256",
          "name": "tokenId",
          "type": "uint256"
        }
      ],
      "name": "getApproved",
      "outputs": [
        {
          "internalType": "address",
          "name": "",
          "type": "address"
        }
      ],
      "stateMutability": "view",
      "type": "function"
    },
    {
      "inputs": [
        {
          "internalType": "address",
          "name": "owner",
          "type": "address"
        },
        {
          "internalType": "address",
          "name": "operator",
          "type": "address"
        }
      ],
      "name": "isApprovedForAll",
      "outputs": [
        {
          "internalType": "bool",
          "name": "",
          "type": "bool"
        }
      ],
      "stateMutability": "view",
      "type": "function"
    },
    {
      "inputs": [],
      "name": "name",
      "outputs": [
        {
          "internalType": "string",
          "name": "",
          "type": "string"
        }
      ],
      "stateMutability": "view",
      "type": "function"
    },
    {
      "inputs": [],
      "name": "nftImage",
      "outputs": [
        {
          "internalType": "string",
          "name": "",
          "type": "string"
        }
      ],
      "stateMutability": "view",
      "type": "function"
    },
    {
      "inputs": [],
      "name": "nftName",
      "outputs": [
        {
          "internalType": "string",
          "name": "",
          "type": "string"
        }
      ],
      "stateMutability": "view",
      "type": "function"
    },
    {
      "inputs": [
        {
          "internalType": "uint256",
          "name": "tokenId",
          "type": "uint256"
        }
      ],
      "name": "ownerOf",
      "outputs": [
        {
          "internalType": "address",
          "name": "",
          "type": "address"
        }
      ],
      "stateMutability": "view",
      "type": "function"
    },
    {
      "inputs": [
        {
          "internalType": "address",
          "name": "to",
          "type": "address"
        },
        {
          "internalType": "uint256[2]",
          "name": "_pA",
          "type": "uint256[2]"
        },
        {
          "internalType": "uint256[2][2]",
          "name": "_pB",
          "type": "uint256[2][2]"
        },
        {
          "internalType": "uint256[2]",
          "name": "_pC",
          "type": "uint256[2]"
        },
        {
          "internalType": "uint256[1]",
          "name": "_pubSignals",
          "type": "uint256[1]"
        }
      ],
      "name": "safeMint",
      "outputs": [],
      "stateMutability": "nonpayable",
      "type": "function"
    },
    {
      "inputs": [
        {
          "internalType": "address",
          "name": "from",
          "type": "address"
        },
        {
          "internalType": "address",
          "name": "to",
          "type": "address"
        },
        {
          "internalType": "uint256",
          "name": "tokenId",
          "type": "uint256"
        }
      ],
      "name": "safeTransferFrom",
      "outputs": [],
      "stateMutability": "nonpayable",
      "type": "function"
    },
    {
      "inputs": [
        {
          "internalType": "address",
          "name": "from",
          "type": "address"
        },
        {
          "internalType": "address",
          "name": "to",
          "type": "address"
        },
        {
          "internalType": "uint256",
          "name": "tokenId",
          "type": "uint256"
        },
        {
          "internalType": "bytes",
          "name": "data",
          "type": "bytes"
        }
      ],
      "name": "safeTransferFrom",
      "outputs": [],
      "stateMutability": "nonpayable",
      "type": "function"
    },
    {
      "inputs": [
        {
          "internalType": "address",
          "name": "operator",
          "type": "address"
        },
        {
          "internalType": "bool",
          "name": "approved",
          "type": "bool"
        }
      ],
      "name": "setApprovalForAll",
      "outputs": [],
      "stateMutability": "nonpayable",
      "type": "function"
    },
    {
      "inputs": [
        {
          "internalType": "bytes4",
          "name": "interfaceId",
          "type": "bytes4"
        }
      ],
      "name": "supportsInterface",
      "outputs": [
        {
          "internalType": "bool",
          "name": "",
          "type": "bool"
        }
      ],
      "stateMutability": "view",
      "type": "function"
    },
    {
      "inputs": [],
      "name": "symbol",
      "outputs": [
        {
          "internalType": "string",
          "name": "",
          "type": "string"
        }
      ],
      "stateMutability": "view",
      "type": "function"
    },
    {
      "inputs": [
        {
          "internalType": "uint256",
          "name": "",
          "type": "uint256"
        }
      ],
      "name": "tokenURI",
      "outputs": [
        {
          "internalType": "string",
          "name": "",
          "type": "string"
        }
      ],
      "stateMutability": "pure",
      "type": "function"
    },
    {
      "inputs": [],
      "name": "totalSupply",
      "outputs": [
        {
          "internalType": "uint256",
          "name": "",
          "type": "uint256"
        }
      ],
      "stateMutability": "view",
      "type": "function"
    },
    {
      "inputs": [
        {
          "internalType": "address",
          "name": "from",
          "type": "address"
        },
        {
          "internalType": "address",
          "name": "to",
          "type": "address"
        },
        {
          "internalType": "uint256",
          "name": "tokenId",
          "type": "uint256"
        }
      ],
      "name": "transferFrom",
      "outputs": [],
      "stateMutability": "nonpayable",
      "type": "function"
    },
    {
      "inputs": [],
      "name": "verifier",
      "outputs": [
        {
          "internalType": "contract IPasswordHashVerifier",
          "name": "",
          "type": "address"
        }
      ],
      "stateMutability": "view",
      "type": "function"
    }
  ],
  "bytecode": "0x60a06040523461003f57610019610014610116565b610207565b610021610044565b6123d761049f82396080518181816106e00152610eeb01526123d790f35b61004a565b60405190565b600080fd5b601f801991011690565b634e487b7160e01b600052604160045260246000fd5b906100799061004f565b810190811060018060401b0382111761009157604052565b610059565b906100a96100a2610044565b928361006f565b565b600080fd5b60018060a01b031690565b6100c4906100b0565b90565b6100d0906100bb565b90565b6100dc816100c7565b036100e357565b600080fd5b905051906100f5826100d3565b565b906020828203126101115761010e916000016100e8565b90565b6100ab565b6101346128768038038061012981610096565b9283398101906100f7565b90565b60018060401b0381116101535761014f60209161004f565b0190565b610059565b9061016a61016583610137565b610096565b918252565b60007f5a4b4e4654000000000000000000000000000000000000000000000000000000910152565b6101a16005610158565b906101ae6020830161016f565b565b6101b8610197565b90565b60007f5a4e465400000000000000000000000000000000000000000000000000000000910152565b6101ed6004610158565b906101fa602083016101bb565b565b6102046101e3565b90565b6102206102126101b0565b61021a6101fc565b90610486565b608052565b5190565b634e487b7160e01b600052602260045260246000fd5b906001600283049216801561025f575b602083101461025a57565b610229565b91607f169161024f565b600052602060002090565b601f602091010490565b1b90565b9190600861029e9102916102986000198461027e565b9261027e565b9181191691161790565b90565b90565b6102c26102bd6102c7926102a8565b6102ab565b6102a8565b90565b90565b91906102e36102de6102eb936102ae565b6102ca565b908354610282565b9055565b600090565b610306916103006102ef565b916102cd565b565b5b818110610314575050565b8061032260006001936102f4565b01610309565b9190601f8111610338575b505050565b61034461036993610269565b90602061035084610274565b83019310610371575b61036290610274565b0190610308565b388080610333565b915061036281929050610359565b1c90565b90610394906000199060080261037f565b191690565b816103a391610383565b906002021790565b906103b581610225565b9060018060401b038211610475576103d7826103d1855461023f565b85610328565b602090601f831160011461040c579180916103fb93600092610400575b5050610399565b90555b565b909150015138806103f4565b601f1983169161041b85610269565b9260005b81811061045d57509160029391856001969410610443575b505050020190556103fe565b610453910151601f841690610383565b9055388080610437565b9193602060018192878701518155019501920161041f565b610059565b90610484916103ab565b565b9061049561049c92600061047a565b600161047a565b56fe60806040526004361015610013575b610c45565b61001e60003561014b565b80628bfb0014610146578062b7e27f1461014157806301ffc9a71461013c57806306fdde0314610137578063081812fc14610132578063095ea7b31461012d57806318160ddd1461012857806323b872dd146101235780632b7ac3f31461011e57806342842e0e146101195780636352211e1461011457806370a082311461010f5780637284e4161461010a57806395d89b4114610105578063a22cb46514610100578063b88d4fde146100fb578063c87b56dd146100f6578063e38bc077146100f15763e985e9c50361000e57610c0f565b610bac565b610ac9565b610a92565b61096c565b6108e5565b6108b0565b610819565b6107c5565b610791565b61075c565b6106aa565b61063a565b6105e3565b610580565b6104e2565b6104ad565b6103ff565b6102e7565b60e01c90565b60405190565b600080fd5b600080fd5b600091031261016c57565b61015c565b601f801991011690565b634e487b7160e01b600052604160045260246000fd5b9061019b90610171565b810190811067ffffffffffffffff8211176101b557604052565b61017b565b906101cd6101c6610151565b9283610191565b565b67ffffffffffffffff81116101ed576101e9602091610171565b0190565b61017b565b906102046101ff836101cf565b6101ba565b918252565b60007f5a4b204e46540000000000000000000000000000000000000000000000000000910152565b61023b60066101f2565b9061024860208301610209565b565b610252610231565b90565b61025d61024a565b90565b610268610255565b90565b5190565b60209181520190565b60005b83811061028c575050906000910152565b80602091830151818501520161027b565b6102bc6102c56020936102ca936102b38161026b565b9384809361026f565b95869101610278565b610171565b0190565b6102e4916020820191600081840391015261029d565b90565b34610317576102f7366004610161565b610313610302610260565b61030a610151565b918291826102ce565b0390f35b610157565b600080fd5b60018060a01b031690565b61033590610321565b90565b6103418161032c565b0361034857565b600080fd5b9050359061035a82610338565b565b600080fd5b9190602060020283011161037157565b61035c565b9190604060020283011161038657565b61035c565b9190602060010283011161039b57565b61035c565b9190610140838203126103f4576103ba816000850161034d565b926103c88260208301610361565b926103f16103d98460608501610376565b936103e78160e08601610361565b936101200161038b565b90565b61015c565b60000190565b346104315761041b6104123660046103a0565b93929092610eba565b610423610151565b8061042d816103f9565b0390f35b610157565b63ffffffff60e01b1690565b61044b81610436565b0361045257565b600080fd5b9050359061046482610442565b565b906020828203126104805761047d91600001610457565b90565b61015c565b151590565b61049390610485565b9052565b91906104ab9060006020850194019061048a565b565b346104dd576104d96104c86104c3366004610466565b610f97565b6104d0610151565b91829182610497565b0390f35b610157565b34610512576104f2366004610161565b61050e6104fd611122565b610505610151565b918291826102ce565b0390f35b610157565b90565b61052381610517565b0361052a57565b600080fd5b9050359061053c8261051a565b565b90602082820312610558576105559160000161052f565b90565b61015c565b6105669061032c565b9052565b919061057e9060006020850194019061055d565b565b346105b0576105ac61059b61059636600461053e565b61113d565b6105a3610151565b9182918261056a565b0390f35b610157565b91906040838203126105de57806105d26105db926000860161034d565b9360200161052f565b90565b61015c565b34610612576105fc6105f63660046105b5565b9061115c565b610604610151565b8061060e816103f9565b0390f35b610157565b61062090610517565b9052565b919061063890600060208501940190610617565b565b3461066a5761064a366004610161565b610666610655611177565b61065d610151565b91829182610624565b0390f35b610157565b90916060828403126106a5576106a261068b846000850161034d565b93610699816020860161034d565b9360400161052f565b90565b61015c565b346106d9576106c36106bd36600461066f565b916111eb565b6106cb610151565b806106d5816103f9565b0390f35b610157565b7f000000000000000000000000000000000000000000000000000000000000000090565b90565b61071961071461071e92610321565b610702565b610321565b90565b61072a90610705565b90565b61073690610721565b90565b6107429061072d565b9052565b919061075a90600060208501940190610739565b565b3461078c5761076c366004610161565b6107886107776106de565b61077f610151565b91829182610746565b0390f35b610157565b346107c0576107aa6107a436600461066f565b916112a2565b6107b2610151565b806107bc816103f9565b0390f35b610157565b346107f5576107f16107e06107db36600461053e565b6112b8565b6107e8610151565b9182918261056a565b0390f35b610157565b90602082820312610814576108119160000161034d565b90565b61015c565b346108495761084561083461082f3660046107fa565b6112f1565b61083c610151565b91829182610624565b0390f35b610157565b60007f546869732069732061205365727665726c657373205a4b204e46542e00000000910152565b610880601c6101f2565b9061088d6020830161084e565b565b610897610876565b90565b6108a261088f565b90565b6108ad61089a565b90565b346108e0576108c0366004610161565b6108dc6108cb6108a5565b6108d3610151565b918291826102ce565b0390f35b610157565b34610915576108f5366004610161565b61091161090061135a565b610908610151565b918291826102ce565b0390f35b610157565b61092381610485565b0361092a57565b600080fd5b9050359061093c8261091a565b565b9190604083820312610967578061095b610964926000860161034d565b9360200161092f565b90565b61015c565b3461099b5761098561097f36600461093e565b90611370565b61098d610151565b80610997816103f9565b0390f35b610157565b600080fd5b600080fd5b67ffffffffffffffff81116109c8576109c4602091610171565b0190565b61017b565b90826000939282370152565b909291926109ee6109e9826109aa565b6101ba565b93818552602085019082840111610a0a57610a08926109cd565b565b6109a5565b9080601f83011215610a2d57816020610a2a933591016109d9565b90565b6109a0565b90608082820312610a8d57610a4a816000840161034d565b92610a58826020850161034d565b92610a66836040830161052f565b92606082013567ffffffffffffffff8111610a8857610a859201610a0f565b90565b61031c565b61015c565b34610ac457610aae610aa5366004610a32565b92919091611386565b610ab6610151565b80610ac0816103f9565b0390f35b610157565b34610af957610af5610ae4610adf36600461053e565b611570565b610aec610151565b918291826102ce565b0390f35b610157565b60407f367a712e697066732e7733732e6c696e6b2f0000000000000000000000000000917f68747470733a2f2f6261666b726569647468733673347a673265786335776c6e60008201527f676d686c6d3562617632787366757073377a65656d656533726b73626270637860208201520152565b610b7c60526101f2565b90610b8960208301610afe565b565b610b93610b72565b90565b610b9e610b8b565b90565b610ba9610b96565b90565b34610bdc57610bbc366004610161565b610bd8610bc7610ba1565b610bcf610151565b918291826102ce565b0390f35b610157565b9190604083820312610c0a5780610bfe610c07926000860161034d565b9360200161034d565b90565b61015c565b34610c4057610c3c610c2b610c25366004610be1565b9061164f565b610c33610151565b91829182610497565b0390f35b610157565b600080fd5b60001c90565b90565b610c5f610c6491610c4a565b610c50565b90565b610c719054610c53565b90565b634e487b7160e01b600052601160045260246000fd5b610c9390610517565b6000198114610ca25760010190565b610c74565b60001b90565b90610cba60001991610ca7565b9181191691161790565b610cd8610cd3610cdd92610517565b610702565b610517565b90565b90565b90610cf8610cf3610cff92610cc4565b610ce0565b8254610cad565b9055565b60e01b90565b90505190610d168261091a565b565b90602082820312610d3257610d2f91600001610d09565b90565b61015c565b9037565b610d4791604091610d37565b565b50600290565b905090565b90565b610d6391604091610d37565b565b90610d7281604093610d57565b0190565b5090565b60400190565b610d9c610d96610d8f83610d49565b8094610d4f565b91610d54565b806000925b848410610daf575050505050565b610dcd610dc7600192610dc28686610d76565b610d65565b93610d7a565b93019291610da1565b610de291602091610d37565b565b610e1c610e2394610e1261010094989795610e0861012086019a6000870190610d3b565b6040850190610d80565b60c0830190610d3b565b0190610dd6565b565b610e2d610151565b3d6000823e3d90fd5b60007f496e76616c69642070726f6f6600000000000000000000000000000000000000910152565b610e6b600d60209261026f565b610e7481610e36565b0190565b610e8e9060208101906000818303910152610e5e565b90565b15610e9857565b610ea0610151565b62461bcd60e51b815280610eb660048201610e78565b0390fd5b916020919394610f2c6000610ecf6006610c67565b610ee2610edb82610c8a565b6006610ce3565b96610f37610f0f7f000000000000000000000000000000000000000000000000000000000000000061072d565b946343753b4d92969a610f20610151565b9b8c9889978896610d03565b865260048601610de4565b03925af1928315610f8d57610f5d93610f5891600091610f5f575b50610e91565b611677565b565b610f80915060203d8111610f86575b610f788183610191565b810190610d18565b38610f52565b503d610f6e565b610e25565b600090565b610f9f610f92565b5080610fba610fb46380ac58cd60e01b610436565b91610436565b148015610fde575b908115610fce575b5090565b610fd8915061168d565b38610fca565b5080610ff9610ff3635b5e139f60e01b610436565b91610436565b14610fc2565b606090565b634e487b7160e01b600052602260045260246000fd5b906001600283049216801561103a575b602083101461103557565b611004565b91607f169161102a565b60209181520190565b600052602060002090565b906000929180549061107361106c8361101a565b8094611044565b916001811690816000146110cc575060011461108f575b505050565b61109c919293945061104d565b916000925b8184106110b4575050019038808061108a565b600181602092959395548486015201910192906110a1565b92949550505060ff191682521515602002019038808061108a565b906110f191611058565b90565b9061111461110d92611104610151565b938480926110e7565b0383610191565b565b61111f906110f4565b90565b61112a610fff565b506111356000611116565b90565b600090565b61115990611149611138565b50611153816116b3565b5061174f565b90565b90611170919061116a61176e565b9161177b565b565b600090565b61117f611172565b5061118a6006610c67565b90565b90565b6111a461119f6111a99261118d565b610702565b610321565b90565b6111b590611190565b90565b6040906111e26111e994969593966111d86060840198600085019061055d565b6020830190610617565b019061055d565b565b9190806112096112036111fe60006111ac565b61032c565b9161032c565b1461126157611221908261121b61176e565b91611804565b918261123561122f8361032c565b9161032c565b0361123f57505050565b61125d90919260009384936364283d7b60e01b8552600485016111b8565b0390fd5b61128661126e60006111ac565b6000918291633250574960e11b83526004830161056a565b0390fd5b61129460006101f2565b90565b61129f61128a565b90565b916112b692916112b0611297565b92611386565b565b6112ca906112c4611138565b506116b3565b90565b6112d690610721565b90565b906112e3906112cd565b600052602052604060002090565b6112f9611172565b508061131661131061130b60006111ac565b61032c565b9161032c565b146113315761132961132e9160036112d9565b610c67565b90565b61135661133e60006111ac565b60009182916322718ad960e21b83526004830161056a565b0390fd5b611362610fff565b5061136d6001611116565b90565b6113849161137c61176e565b9190916119d0565b565b916113aa9391611398848284916111eb565b6113a061176e565b9390919293611bba565b565b905090565b6000683d913730b6b2911d1160b91b910152565b6113d1600980926113ac565b6113da816113b1565b0190565b6114036113fa926020926113f18161026b565b948580936113ac565b93849101610278565b0190565b600071111610113232b9b1b934b83a34b7b7111d1160711b910152565b611430601280926113ac565b61143981611407565b0190565b60006b1116101134b6b0b3b2911d1160a11b910152565b611460600c80926113ac565b6114698161143d565b0190565b60207f202254797065222c20202276616c7565223a202257696e6e6572227d5d7d0000917f222c202261747472696275746573223a205b7b2274726169745f74797065223a60008201520152565b6114c7603e80926113ac565b6114d08161146d565b0190565b61150361150e936114fd6114f861151397956114f2611508966113c5565b906113de565b611424565b906113de565b611454565b906113de565b6114bb565b90565b60007f646174613a6170706c69636174696f6e2f6a736f6e3b6261736536342c000000910152565b61154a601d80926113ac565b61155381611516565b0190565b9061156461156a9261153e565b906113de565b90565b90565b50611579610fff565b506115f56115e16115f06115cd61158e610255565b6115c861159961089a565b916115b96115a5610b96565b6115ad610151565b948593602085016114d4565b60208201810382520382610191565b611ed8565b6115d5610151565b92839160208301611557565b60208201810382520382610191565b61156d565b90565b90611602906112cd565b600052602052604060002090565b9061161a906112cd565b600052602052604060002090565b60ff1690565b61163a61163f91610c4a565b611628565b90565b61164c905461162e565b90565b6116749161166a61166f92611662610f92565b5060056115f8565b611610565b611642565b90565b9061168b9190611685611297565b91612016565b565b611695610f92565b506116af6116a96301ffc9a760e01b610436565b91610436565b1490565b6116bb611138565b506116c581612045565b90816116e26116dc6116d760006111ac565b61032c565b9161032c565b146116eb575090565b611707906000918291637e27328960e01b835260048301610624565b0390fd5b9061171590610cc4565b600052602052604060002090565b60018060a01b031690565b61173a61173f91610c4a565b611723565b90565b61174c905461172e565b90565b61176661176b9161175e611138565b50600461170b565b611742565b90565b611776611138565b503390565b916117899291600192612064565b565b90565b6117a261179d6117a79261178b565b610702565b610517565b90565b906117b59103610517565b90565b906117c39101610517565b90565b906117d760018060a01b0391610ca7565b9181191691161790565b90565b906117f96117f4611800926112cd565b6117e1565b82546117c6565b9055565b9061180d611138565b5061181781612045565b928061183461182e61182960006111ac565b61032c565b9161032c565b03611978575b508261185761185161184c60006111ac565b61032c565b9161032c565b03611921575b8161187961187361186e60006111ac565b61032c565b9161032c565b036118eb575b6118948261188f6002849061170b565b6117e4565b82916118d26118cc6118c67fddf252ad1be2c89b69c2b068fc378daa952ba7f163c4a11628f55a4df523b3ef956112cd565b926112cd565b92610cc4565b926118db610151565b806118e5816103f9565b0390a490565b61191c6118f8600161178e565b611916611907600386906112d9565b9161191183610c67565b6117b8565b90610ce3565b61187f565b61194261192e60006111ac565b8261193960006111ac565b90600092612064565b61197361194f600161178e565b61196d61195e600387906112d9565b9161196883610c67565b6117aa565b90610ce3565b61185d565b61198590849083916121d5565b3861183a565b9061199760ff91610ca7565b9181191691161790565b6119aa90610485565b90565b90565b906119c56119c06119cc926119a1565b6119ad565b825461198b565b9055565b919091826119ef6119e96119e460006111ac565b61032c565b9161032c565b14611a6357611a1382611a0e611a07600585906115f8565b8690611610565b6119b0565b919091611a5e611a4c611a467f17307eab39ab6107e8899845ad3d59bd9653f200f220920489ca2b5937696c31936112cd565b936112cd565b93611a55610151565b91829182610497565b0390a3565b611a7f836000918291630b61174360e31b83526004830161056a565b0390fd5b611a97611a92611a9c9261118d565b610702565b610517565b90565b611aa890610705565b90565b611ab490611a9f565b90565b611ac090610721565b90565b90505190611ad082610442565b565b90602082820312611aec57611ae991600001611ac3565b90565b61015c565b5190565b60209181520190565b611b1d611b26602093611b2b93611b1481611af1565b93848093611af5565b95869101610278565b610171565b0190565b9092611b6390611b59611b709694611b4f6080860197600087019061055d565b602085019061055d565b6040830190610617565b6060818403910152611afe565b90565b90611b85611b80836109aa565b6101ba565b918252565b606090565b3d600014611bac57611ba03d611b73565b903d6000602084013e5b565b611bb4611b8a565b90611baa565b9193843b611bd1611bcb6000611a83565b91610517565b11611bde575b5050505050565b611c176000602094611c22611bfa611bf58a611aab565b611ab7565b9463150b7a02929698611c0b610151565b998a9889978896610d03565b865260048601611b2f565b03925af18091600092611ce6575b5015600014611ca257506001611c4c57505b3880808080611bd7565b611c54611b8f565b90611c5e82611af1565b611c71611c6b6000611a83565b91610517565b14600014611c9957611c95906000918291633250574960e11b83526004830161056a565b0390fd5b50602081519101fd5b611cbb611cb5630a85bd0160e11b610436565b91610436565b03611cc65750611c42565b611ce2906000918291633250574960e11b83526004830161056a565b0390fd5b611d0891925060203d8111611d0f575b611d008183610191565b810190611ad2565b9038611c30565b503d611cf6565b611d1e61128a565b90565b60207f6768696a6b6c6d6e6f707172737475767778797a303132333435363738392b2f917f4142434445464748494a4b4c4d4e4f505152535455565758595a61626364656660008201520152565b611d7960406101f2565b90611d8660208301611d21565b565b611d90611d6f565b90565b611d9b611d88565b90565b90565b611db5611db0611dba92611d9e565b610702565b610517565b90565b611dcc611dd291939293610517565b92610517565b8201809211611ddd57565b610c74565b90565b611df9611df4611dfe92611de2565b610702565b610517565b90565b634e487b7160e01b600052601260045260246000fd5b611e23611e2991610517565b91610517565b908115611e34570490565b611e01565b90565b611e50611e4b611e5592611e39565b610702565b610517565b90565b611e67611e6d91939293610517565b92610517565b91611e79838202610517565b928184041490151715611e8857565b610c74565b90565b611ea4611e9f611ea992611e8d565b610702565b610517565b90565b369037565b90611ed6611ebe836101f2565b92602080611ecc86936101cf565b9201910390611eac565b565b611ee0610fff565b50611eea81611af1565b611efd611ef76000611a83565b91610517565b1461200a57611f0a611d93565b906001611f4f6004611f4a611f44611f34611f2487611af1565b611f2e6002611da1565b90611dbd565b611f3e6003611de5565b90611e17565b91611e3c565b611e58565b92611f6c611f6785611f616020611e90565b90611dbd565b611eb1565b93845201908091815183019060208501935b828110611fc357505050600390510680600114611fb157600214611fa1575b5090565b6001603d60f81b91035238611f9d565b506002613d3d60f01b91035238611f9d565b6003600191959293950191603f828080865194848660121c168901518153018385600c1c16880151815301828460061c168701518153019116840151815301939190611f7e565b50612013611d16565b90565b909161204392612027838290612255565b61202f61176e565b9261203a60006111ac565b90919293611bba565b565b61205c61206191612054611138565b50600261170b565b611742565b90565b91909280801561218d575b61208d575b50509061208661208b9291600461170b565b6117e4565b565b612096846116b3565b91806120b36120ad6120a860006111ac565b61032c565b9161032c565b141580612172575b80612158575b6121385750916120869161208b94936120dd575b509192612074565b81849061211c6121166121107f8c5be1e5ebec7d5bd14f71427d1e84f3dd0314c0f7b2291e5b200ac8c7c3b925956112cd565b926112cd565b92610cc4565b92612125610151565b8061212f816103f9565b0390a4386120d5565b61215490600091829163a9fbf51f60e01b83526004830161056a565b0390fd5b5061216d61216784839061164f565b15610485565b6120c1565b50826121866121808361032c565b9161032c565b14156120bb565b50816121aa6121a461219f60006111ac565b61032c565b9161032c565b141561206f565b9160206121d39294936121cc6040820196600083019061055d565b0190610617565b565b6121ea6121e482848691612300565b15610485565b6121f357505050565b61220e61220861220360006111ac565b61032c565b9161032c565b1460001461223657612232826000918291637e27328960e01b835260048301610624565b0390fd5b612251600092839263177e802f60e01b8452600484016121b1565b0390fd5b908161227261226c61226760006111ac565b61032c565b9161032c565b146122d75761228c919061228660006111ac565b91611804565b6122a76122a161229c60006111ac565b61032c565b9161032c565b036122ae57565b6122d36122bb60006111ac565b60009182916339e3563760e11b83526004830161056a565b0390fd5b6122fc6122e460006111ac565b6000918291633250574960e11b83526004830161056a565b0390fd5b919061230a610f92565b508061232761232161231c60006111ac565b61032c565b9161032c565b14159283612336575b50505090565b809192935061234d6123478461032c565b9161032c565b1490811561238f575b50918215612369575b5050388080612330565b61238791925061237b6123819161174f565b9261032c565b9161032c565b14388061235f565b61239b9150829061164f565b3861235656fea2646970667358221220c7cf8dc6891373e254062fff702a96047d89cff7197879697d3397f42fb21d6e64736f6c634300081c0033",
  "linkReferences": {},
  "deployedLinkReferences": {}
}